{
  "_format": "hh-sol-artifact-1",
  "contractName": "cryptokids",
  "sourceName": "contracts/Parentbank.sol",
  "abi": [
    {
      "inputs": [],
      "stateMutability": "nonpayable",
      "type": "constructor"
    },
    {
      "inputs": [],
      "name": "balance",
      "outputs": [
        {
          "internalType": "uint256",
          "name": "",
          "type": "uint256"
        }
      ],
      "stateMutability": "view",
      "type": "function"
    },
    {
      "inputs": [
        {
          "internalType": "address",
          "name": "addr",
          "type": "address"
        },
        {
          "internalType": "string",
          "name": "_fname",
          "type": "string"
        },
        {
          "internalType": "string",
          "name": "_name",
          "type": "string"
        },
        {
          "internalType": "uint256",
          "name": "_time",
          "type": "uint256"
        },
        {
          "internalType": "bool",
          "name": "cwith",
          "type": "bool"
        }
      ],
      "name": "deposit",
      "outputs": [],
      "stateMutability": "payable",
      "type": "function"
    },
    {
      "inputs": [],
      "name": "getOwner",
      "outputs": [
        {
          "internalType": "address",
          "name": "",
          "type": "address"
        }
      ],
      "stateMutability": "view",
      "type": "function"
    },
    {
      "inputs": [],
      "name": "gettestvalue",
      "outputs": [
        {
          "internalType": "uint256",
          "name": "",
          "type": "uint256"
        }
      ],
      "stateMutability": "pure",
      "type": "function"
    },
    {
      "inputs": [
        {
          "internalType": "address",
          "name": "",
          "type": "address"
        }
      ],
      "name": "kidsdetails",
      "outputs": [
        {
          "internalType": "string",
          "name": "fname",
          "type": "string"
        },
        {
          "internalType": "string",
          "name": "lname",
          "type": "string"
        },
        {
          "internalType": "uint256",
          "name": "amount",
          "type": "uint256"
        },
        {
          "internalType": "uint256",
          "name": "timestamp",
          "type": "uint256"
        },
        {
          "internalType": "bool",
          "name": "canwithdraw",
          "type": "bool"
        },
        {
          "internalType": "address",
          "name": "addr",
          "type": "address"
        }
      ],
      "stateMutability": "view",
      "type": "function"
    },
    {
      "inputs": [],
      "name": "owner",
      "outputs": [
        {
          "internalType": "address",
          "name": "",
          "type": "address"
        }
      ],
      "stateMutability": "view",
      "type": "function"
    },
    {
      "inputs": [
        {
          "internalType": "uint256",
          "name": "_amount",
          "type": "uint256"
        }
      ],
      "name": "widthraw",
      "outputs": [],
      "stateMutability": "nonpayable",
      "type": "function"
    }
  ],
  "bytecode": "0x608060405234801561001057600080fd5b50336000806101000a81548173ffffffffffffffffffffffffffffffffffffffff021916908373ffffffffffffffffffffffffffffffffffffffff160217905550610fbf806100606000396000f3fe6080604052600436106100705760003560e01c8063893d20e81161004e578063893d20e81461010b5780638da5cb5b146101365780639c4292bc14610161578063b69ef8a81461017d57610070565b806329452c221461007557806365f0155d146100b757806386098df9146100e0575b600080fd5b34801561008157600080fd5b5061009c6004803603810190610097919061090c565b6101a8565b6040516100ae96959493929190610a15565b60405180910390f35b3480156100c357600080fd5b506100de60048036038101906100d99190610ab0565b610321565b005b3480156100ec57600080fd5b506100f561053b565b6040516101029190610add565b60405180910390f35b34801561011757600080fd5b50610120610544565b60405161012d9190610af8565b60405180910390f35b34801561014257600080fd5b5061014b61056d565b6040516101589190610af8565b60405180910390f35b61017b60048036038101906101769190610c74565b610591565b005b34801561018957600080fd5b506101926107ad565b60405161019f9190610add565b60405180910390f35b60016020528060005260406000206000915090508060000180546101cb90610d56565b80601f01602080910402602001604051908101604052809291908181526020018280546101f790610d56565b80156102445780601f1061021957610100808354040283529160200191610244565b820191906000526020600020905b81548152906001019060200180831161022757829003601f168201915b50505050509080600101805461025990610d56565b80601f016020809104026020016040519081016040528092919081815260200182805461028590610d56565b80156102d25780601f106102a7576101008083540402835291602001916102d2565b820191906000526020600020905b8154815290600101906020018083116102b557829003601f168201915b5050505050908060020154908060030154908060040160009054906101000a900460ff16908060040160019054906101000a900473ffffffffffffffffffffffffffffffffffffffff16905086565b670de0b6b3a7640000816103359190610db7565b600160003373ffffffffffffffffffffffffffffffffffffffff1673ffffffffffffffffffffffffffffffffffffffff1681526020019081526020016000206002015410156103b9576040517f08c379a00000000000000000000000000000000000000000000000000000000081526004016103b090610e5d565b60405180910390fd5b6000600160003373ffffffffffffffffffffffffffffffffffffffff1673ffffffffffffffffffffffffffffffffffffffff1681526020019081526020016000206003015490508042111561053757670de0b6b3a76400008261041c9190610db7565b600160003373ffffffffffffffffffffffffffffffffffffffff1673ffffffffffffffffffffffffffffffffffffffff168152602001908152602001600020600201600082825461046d9190610e7d565b925050819055506000600160003373ffffffffffffffffffffffffffffffffffffffff1673ffffffffffffffffffffffffffffffffffffffff16815260200190815260200160002060040160019054906101000a900473ffffffffffffffffffffffffffffffffffffffff1690508073ffffffffffffffffffffffffffffffffffffffff166108fc670de0b6b3a7640000856105099190610db7565b9081150290604051600060405180830381858888f19350505050158015610534573d6000803e3d6000fd5b50505b5050565b6000600a905090565b60008060009054906101000a900473ffffffffffffffffffffffffffffffffffffffff16905090565b60008054906101000a900473ffffffffffffffffffffffffffffffffffffffff1681565b60008054906101000a900473ffffffffffffffffffffffffffffffffffffffff1673ffffffffffffffffffffffffffffffffffffffff163373ffffffffffffffffffffffffffffffffffffffff161461061f576040517f08c379a000000000000000000000000000000000000000000000000000000000815260040161061690610efd565b60405180910390fd5b670de0b6b3a764000034101561066a576040517f08c379a000000000000000000000000000000000000000000000000000000000815260040161066190610f69565b60405180910390fd5b6040518060c0016040528085815260200184815260200134815260200183815260200182151581526020018673ffffffffffffffffffffffffffffffffffffffff16815250600160008773ffffffffffffffffffffffffffffffffffffffff1673ffffffffffffffffffffffffffffffffffffffff168152602001908152602001600020600082015181600001908051906020019061070a9291906107f7565b5060208201518160010190805190602001906107279291906107f7565b50604082015181600201556060820151816003015560808201518160040160006101000a81548160ff02191690831515021790555060a08201518160040160016101000a81548173ffffffffffffffffffffffffffffffffffffffff021916908373ffffffffffffffffffffffffffffffffffffffff1602179055509050505050505050565b6000600160003373ffffffffffffffffffffffffffffffffffffffff1673ffffffffffffffffffffffffffffffffffffffff16815260200190815260200160002060020154905090565b82805461080390610d56565b90600052602060002090601f016020900481019282610825576000855561086c565b82601f1061083e57805160ff191683800117855561086c565b8280016001018555821561086c579182015b8281111561086b578251825591602001919060010190610850565b5b509050610879919061087d565b5090565b5b8082111561089657600081600090555060010161087e565b5090565b6000604051905090565b600080fd5b600080fd5b600073ffffffffffffffffffffffffffffffffffffffff82169050919050565b60006108d9826108ae565b9050919050565b6108e9816108ce565b81146108f457600080fd5b50565b600081359050610906816108e0565b92915050565b600060208284031215610922576109216108a4565b5b6000610930848285016108f7565b91505092915050565b600081519050919050565b600082825260208201905092915050565b60005b83811015610973578082015181840152602081019050610958565b83811115610982576000848401525b50505050565b6000601f19601f8301169050919050565b60006109a482610939565b6109ae8185610944565b93506109be818560208601610955565b6109c781610988565b840191505092915050565b6000819050919050565b6109e5816109d2565b82525050565b60008115159050919050565b610a00816109eb565b82525050565b610a0f816108ce565b82525050565b600060c0820190508181036000830152610a2f8189610999565b90508181036020830152610a438188610999565b9050610a5260408301876109dc565b610a5f60608301866109dc565b610a6c60808301856109f7565b610a7960a0830184610a06565b979650505050505050565b610a8d816109d2565b8114610a9857600080fd5b50565b600081359050610aaa81610a84565b92915050565b600060208284031215610ac657610ac56108a4565b5b6000610ad484828501610a9b565b91505092915050565b6000602082019050610af260008301846109dc565b92915050565b6000602082019050610b0d6000830184610a06565b92915050565b600080fd5b600080fd5b7f4e487b7100000000000000000000000000000000000000000000000000000000600052604160045260246000fd5b610b5582610988565b810181811067ffffffffffffffff82111715610b7457610b73610b1d565b5b80604052505050565b6000610b8761089a565b9050610b938282610b4c565b919050565b600067ffffffffffffffff821115610bb357610bb2610b1d565b5b610bbc82610988565b9050602081019050919050565b82818337600083830152505050565b6000610beb610be684610b98565b610b7d565b905082815260208101848484011115610c0757610c06610b18565b5b610c12848285610bc9565b509392505050565b600082601f830112610c2f57610c2e610b13565b5b8135610c3f848260208601610bd8565b91505092915050565b610c51816109eb565b8114610c5c57600080fd5b50565b600081359050610c6e81610c48565b92915050565b600080600080600060a08688031215610c9057610c8f6108a4565b5b6000610c9e888289016108f7565b955050602086013567ffffffffffffffff811115610cbf57610cbe6108a9565b5b610ccb88828901610c1a565b945050604086013567ffffffffffffffff811115610cec57610ceb6108a9565b5b610cf888828901610c1a565b9350506060610d0988828901610a9b565b9250506080610d1a88828901610c5f565b9150509295509295909350565b7f4e487b7100000000000000000000000000000000000000000000000000000000600052602260045260246000fd5b60006002820490506001821680610d6e57607f821691505b60208210811415610d8257610d81610d27565b5b50919050565b7f4e487b7100000000000000000000000000000000000000000000000000000000600052601160045260246000fd5b6000610dc2826109d2565b9150610dcd836109d2565b9250817fffffffffffffffffffffffffffffffffffffffffffffffffffffffffffffffff0483118215151615610e0657610e05610d88565b5b828202905092915050565b7f6e6f7420656e6f75676800000000000000000000000000000000000000000000600082015250565b6000610e47600a83610944565b9150610e5282610e11565b602082019050919050565b60006020820190508181036000830152610e7681610e3a565b9050919050565b6000610e88826109d2565b9150610e93836109d2565b925082821015610ea657610ea5610d88565b5b828203905092915050565b7f6f6e6c79206f776e65722063616e20616464206b696400000000000000000000600082015250565b6000610ee7601683610944565b9150610ef282610eb1565b602082019050919050565b60006020820190508181036000830152610f1681610eda565b9050919050565b7f7061792076616c756520616d6f756e7400000000000000000000000000000000600082015250565b6000610f53601083610944565b9150610f5e82610f1d565b602082019050919050565b60006020820190508181036000830152610f8281610f46565b905091905056fea264697066735822122081238ef45bae6445843253e1f10162525c0941975167fdb0443d4b973fb0fbe364736f6c63430008090033",
  "linkReferences": {},
  "deployedLinkReferences": {}
}