{
  "_format": "hh-sol-artifact-1",
  "contractName": "cryptokids",
  "sourceName": "contracts/Parentbank.sol",
  "abi": [
    {
      "inputs": [],
      "stateMutability": "nonpayable",
      "type": "constructor"
    },
    {
      "inputs": [],
      "name": "balance",
      "outputs": [
        {
          "internalType": "uint256",
          "name": "",
          "type": "uint256"
        }
      ],
      "stateMutability": "view",
      "type": "function"
    },
    {
      "inputs": [
        {
          "internalType": "address",
          "name": "addr",
          "type": "address"
        },
        {
          "internalType": "string",
          "name": "_fname",
          "type": "string"
        },
        {
          "internalType": "string",
          "name": "_name",
          "type": "string"
        },
        {
          "internalType": "uint256",
          "name": "_time",
          "type": "uint256"
        },
        {
          "internalType": "bool",
          "name": "cwith",
          "type": "bool"
        }
      ],
      "name": "deposit",
      "outputs": [],
      "stateMutability": "payable",
      "type": "function"
    },
    {
      "inputs": [],
      "name": "getOwner",
      "outputs": [
        {
          "internalType": "address",
          "name": "",
          "type": "address"
        }
      ],
      "stateMutability": "view",
      "type": "function"
    },
    {
      "inputs": [],
      "name": "gettestvalue",
      "outputs": [
        {
          "internalType": "uint256",
          "name": "",
          "type": "uint256"
        }
      ],
      "stateMutability": "pure",
      "type": "function"
    },
    {
      "inputs": [],
      "name": "isAdmin",
      "outputs": [
        {
          "internalType": "string",
          "name": "",
          "type": "string"
        }
      ],
      "stateMutability": "view",
      "type": "function"
    },
    {
      "inputs": [
        {
          "internalType": "address",
          "name": "",
          "type": "address"
        }
      ],
      "name": "kidsdetails",
      "outputs": [
        {
          "internalType": "string",
          "name": "fname",
          "type": "string"
        },
        {
          "internalType": "string",
          "name": "lname",
          "type": "string"
        },
        {
          "internalType": "uint256",
          "name": "amount",
          "type": "uint256"
        },
        {
          "internalType": "uint256",
          "name": "timestamp",
          "type": "uint256"
        },
        {
          "internalType": "bool",
          "name": "canwithdraw",
          "type": "bool"
        },
        {
          "internalType": "address",
          "name": "addr",
          "type": "address"
        }
      ],
      "stateMutability": "view",
      "type": "function"
    },
    {
      "inputs": [],
      "name": "mybalance",
      "outputs": [
        {
          "internalType": "uint256",
          "name": "",
          "type": "uint256"
        }
      ],
      "stateMutability": "pure",
      "type": "function"
    },
    {
      "inputs": [],
      "name": "name",
      "outputs": [
        {
          "internalType": "string",
          "name": "",
          "type": "string"
        }
      ],
      "stateMutability": "view",
      "type": "function"
    },
    {
      "inputs": [],
      "name": "owner",
      "outputs": [
        {
          "internalType": "address",
          "name": "",
          "type": "address"
        }
      ],
      "stateMutability": "view",
      "type": "function"
    },
    {
      "inputs": [
        {
          "internalType": "uint256",
          "name": "_amount",
          "type": "uint256"
        }
      ],
      "name": "widthraw",
      "outputs": [],
      "stateMutability": "nonpayable",
      "type": "function"
    }
  ],
  "bytecode": "0x608060405234801561001057600080fd5b50336000806101000a81548173ffffffffffffffffffffffffffffffffffffffff021916908373ffffffffffffffffffffffffffffffffffffffff160217905550611234806100606000396000f3fe6080604052600436106100915760003560e01c80638da5cb5b116100595780638da5cb5b146101825780639c4292bc146101ad578063ac19a2a9146101c9578063b69ef8a8146101f4578063b6db75a01461021f57610091565b806306fdde031461009657806329452c22146100c157806365f0155d1461010357806386098df91461012c578063893d20e814610157575b600080fd5b3480156100a257600080fd5b506100ab61024a565b6040516100b89190610b86565b60405180910390f35b3480156100cd57600080fd5b506100e860048036038101906100e39190610c1a565b61031c565b6040516100fa96959493929190610c8a565b60405180910390f35b34801561010f57600080fd5b5061012a60048036038101906101259190610d25565b610495565b005b34801561013857600080fd5b506101416106af565b60405161014e9190610d52565b60405180910390f35b34801561016357600080fd5b5061016c6106b8565b6040516101799190610d6d565b60405180910390f35b34801561018e57600080fd5b506101976106e1565b6040516101a49190610d6d565b60405180910390f35b6101c760048036038101906101c29190610ee9565b610705565b005b3480156101d557600080fd5b506101de610921565b6040516101eb9190610d52565b60405180910390f35b34801561020057600080fd5b50610209610931565b6040516102169190610d52565b60405180910390f35b34801561022b57600080fd5b5061023461097b565b6040516102419190610b86565b60405180910390f35b6060600160003373ffffffffffffffffffffffffffffffffffffffff1673ffffffffffffffffffffffffffffffffffffffff168152602001908152602001600020600001805461029990610fcb565b80601f01602080910402602001604051908101604052809291908181526020018280546102c590610fcb565b80156103125780601f106102e757610100808354040283529160200191610312565b820191906000526020600020905b8154815290600101906020018083116102f557829003601f168201915b5050505050905090565b600160205280600052604060002060009150905080600001805461033f90610fcb565b80601f016020809104026020016040519081016040528092919081815260200182805461036b90610fcb565b80156103b85780601f1061038d576101008083540402835291602001916103b8565b820191906000526020600020905b81548152906001019060200180831161039b57829003601f168201915b5050505050908060010180546103cd90610fcb565b80601f01602080910402602001604051908101604052809291908181526020018280546103f990610fcb565b80156104465780601f1061041b57610100808354040283529160200191610446565b820191906000526020600020905b81548152906001019060200180831161042957829003601f168201915b5050505050908060020154908060030154908060040160009054906101000a900460ff16908060040160019054906101000a900473ffffffffffffffffffffffffffffffffffffffff16905086565b670de0b6b3a7640000816104a9919061102c565b600160003373ffffffffffffffffffffffffffffffffffffffff1673ffffffffffffffffffffffffffffffffffffffff16815260200190815260200160002060020154101561052d576040517f08c379a0000000000000000000000000000000000000000000000000000000008152600401610524906110d2565b60405180910390fd5b6000600160003373ffffffffffffffffffffffffffffffffffffffff1673ffffffffffffffffffffffffffffffffffffffff168152602001908152602001600020600301549050804211156106ab57670de0b6b3a764000082610590919061102c565b600160003373ffffffffffffffffffffffffffffffffffffffff1673ffffffffffffffffffffffffffffffffffffffff16815260200190815260200160002060020160008282546105e191906110f2565b925050819055506000600160003373ffffffffffffffffffffffffffffffffffffffff1673ffffffffffffffffffffffffffffffffffffffff16815260200190815260200160002060040160019054906101000a900473ffffffffffffffffffffffffffffffffffffffff1690508073ffffffffffffffffffffffffffffffffffffffff166108fc670de0b6b3a76400008561067d919061102c565b9081150290604051600060405180830381858888f193505050501580156106a8573d6000803e3d6000fd5b50505b5050565b6000600a905090565b60008060009054906101000a900473ffffffffffffffffffffffffffffffffffffffff16905090565b60008054906101000a900473ffffffffffffffffffffffffffffffffffffffff1681565b60008054906101000a900473ffffffffffffffffffffffffffffffffffffffff1673ffffffffffffffffffffffffffffffffffffffff163373ffffffffffffffffffffffffffffffffffffffff1614610793576040517f08c379a000000000000000000000000000000000000000000000000000000000815260040161078a90611172565b60405180910390fd5b670de0b6b3a76400003410156107de576040517f08c379a00000000000000000000000000000000000000000000000000000000081526004016107d5906111de565b60405180910390fd5b6040518060c0016040528085815260200184815260200134815260200183815260200182151581526020018673ffffffffffffffffffffffffffffffffffffffff16815250600160008773ffffffffffffffffffffffffffffffffffffffff1673ffffffffffffffffffffffffffffffffffffffff168152602001908152602001600020600082015181600001908051906020019061087e929190610a4a565b50602082015181600101908051906020019061089b929190610a4a565b50604082015181600201556060820151816003015560808201518160040160006101000a81548160ff02191690831515021790555060a08201518160040160016101000a81548173ffffffffffffffffffffffffffffffffffffffff021916908373ffffffffffffffffffffffffffffffffffffffff1602179055509050505050505050565b6000670de0b6b3a7640000905090565b6000600160003373ffffffffffffffffffffffffffffffffffffffff1673ffffffffffffffffffffffffffffffffffffffff16815260200190815260200160002060020154905090565b60603373ffffffffffffffffffffffffffffffffffffffff1660008054906101000a900473ffffffffffffffffffffffffffffffffffffffff1673ffffffffffffffffffffffffffffffffffffffff161415610a0e576040518060400160405280600581526020017f41646d696e0000000000000000000000000000000000000000000000000000008152509050610a47565b6040518060400160405280600681526020017f636c69656e74000000000000000000000000000000000000000000000000000081525090505b90565b828054610a5690610fcb565b90600052602060002090601f016020900481019282610a785760008555610abf565b82601f10610a9157805160ff1916838001178555610abf565b82800160010185558215610abf579182015b82811115610abe578251825591602001919060010190610aa3565b5b509050610acc9190610ad0565b5090565b5b80821115610ae9576000816000905550600101610ad1565b5090565b600081519050919050565b600082825260208201905092915050565b60005b83811015610b27578082015181840152602081019050610b0c565b83811115610b36576000848401525b50505050565b6000601f19601f8301169050919050565b6000610b5882610aed565b610b628185610af8565b9350610b72818560208601610b09565b610b7b81610b3c565b840191505092915050565b60006020820190508181036000830152610ba08184610b4d565b905092915050565b6000604051905090565b600080fd5b600080fd5b600073ffffffffffffffffffffffffffffffffffffffff82169050919050565b6000610be782610bbc565b9050919050565b610bf781610bdc565b8114610c0257600080fd5b50565b600081359050610c1481610bee565b92915050565b600060208284031215610c3057610c2f610bb2565b5b6000610c3e84828501610c05565b91505092915050565b6000819050919050565b610c5a81610c47565b82525050565b60008115159050919050565b610c7581610c60565b82525050565b610c8481610bdc565b82525050565b600060c0820190508181036000830152610ca48189610b4d565b90508181036020830152610cb88188610b4d565b9050610cc76040830187610c51565b610cd46060830186610c51565b610ce16080830185610c6c565b610cee60a0830184610c7b565b979650505050505050565b610d0281610c47565b8114610d0d57600080fd5b50565b600081359050610d1f81610cf9565b92915050565b600060208284031215610d3b57610d3a610bb2565b5b6000610d4984828501610d10565b91505092915050565b6000602082019050610d676000830184610c51565b92915050565b6000602082019050610d826000830184610c7b565b92915050565b600080fd5b600080fd5b7f4e487b7100000000000000000000000000000000000000000000000000000000600052604160045260246000fd5b610dca82610b3c565b810181811067ffffffffffffffff82111715610de957610de8610d92565b5b80604052505050565b6000610dfc610ba8565b9050610e088282610dc1565b919050565b600067ffffffffffffffff821115610e2857610e27610d92565b5b610e3182610b3c565b9050602081019050919050565b82818337600083830152505050565b6000610e60610e5b84610e0d565b610df2565b905082815260208101848484011115610e7c57610e7b610d8d565b5b610e87848285610e3e565b509392505050565b600082601f830112610ea457610ea3610d88565b5b8135610eb4848260208601610e4d565b91505092915050565b610ec681610c60565b8114610ed157600080fd5b50565b600081359050610ee381610ebd565b92915050565b600080600080600060a08688031215610f0557610f04610bb2565b5b6000610f1388828901610c05565b955050602086013567ffffffffffffffff811115610f3457610f33610bb7565b5b610f4088828901610e8f565b945050604086013567ffffffffffffffff811115610f6157610f60610bb7565b5b610f6d88828901610e8f565b9350506060610f7e88828901610d10565b9250506080610f8f88828901610ed4565b9150509295509295909350565b7f4e487b7100000000000000000000000000000000000000000000000000000000600052602260045260246000fd5b60006002820490506001821680610fe357607f821691505b60208210811415610ff757610ff6610f9c565b5b50919050565b7f4e487b7100000000000000000000000000000000000000000000000000000000600052601160045260246000fd5b600061103782610c47565b915061104283610c47565b9250817fffffffffffffffffffffffffffffffffffffffffffffffffffffffffffffffff048311821515161561107b5761107a610ffd565b5b828202905092915050565b7f6e6f7420656e6f75676800000000000000000000000000000000000000000000600082015250565b60006110bc600a83610af8565b91506110c782611086565b602082019050919050565b600060208201905081810360008301526110eb816110af565b9050919050565b60006110fd82610c47565b915061110883610c47565b92508282101561111b5761111a610ffd565b5b828203905092915050565b7f6f6e6c79206f776e65722063616e20616464206b696400000000000000000000600082015250565b600061115c601683610af8565b915061116782611126565b602082019050919050565b6000602082019050818103600083015261118b8161114f565b9050919050565b7f7061792076616c756520616d6f756e7400000000000000000000000000000000600082015250565b60006111c8601083610af8565b91506111d382611192565b602082019050919050565b600060208201905081810360008301526111f7816111bb565b905091905056fea2646970667358221220ba755b1e26a2a7213bee01e7d5a62eb56368b27a9d4bc19cca84ece83b1a68b464736f6c63430008090033",
  "linkReferences": {},
  "deployedLinkReferences": {}
}