{
  "_format": "hh-sol-artifact-1",
  "contractName": "cryptokids",
  "sourceName": "contracts/Parentbank.sol",
  "abi": [
    {
      "inputs": [],
      "stateMutability": "nonpayable",
      "type": "constructor"
    },
    {
      "inputs": [],
      "name": "balance",
      "outputs": [
        {
          "internalType": "uint256",
          "name": "",
          "type": "uint256"
        }
      ],
      "stateMutability": "view",
      "type": "function"
    },
    {
      "inputs": [
        {
          "internalType": "address",
          "name": "addr",
          "type": "address"
        },
        {
          "internalType": "string",
          "name": "_fname",
          "type": "string"
        },
        {
          "internalType": "string",
          "name": "_name",
          "type": "string"
        },
        {
          "internalType": "uint256",
          "name": "_time",
          "type": "uint256"
        }
      ],
      "name": "deposit",
      "outputs": [],
      "stateMutability": "payable",
      "type": "function"
    },
    {
      "inputs": [],
      "name": "getOwner",
      "outputs": [
        {
          "internalType": "address",
          "name": "",
          "type": "address"
        }
      ],
      "stateMutability": "view",
      "type": "function"
    },
    {
      "inputs": [],
      "name": "getProfile",
      "outputs": [
        {
          "components": [
            {
              "internalType": "string",
              "name": "fname",
              "type": "string"
            },
            {
              "internalType": "string",
              "name": "lname",
              "type": "string"
            },
            {
              "internalType": "uint256",
              "name": "amount",
              "type": "uint256"
            },
            {
              "internalType": "uint256",
              "name": "timestamp",
              "type": "uint256"
            },
            {
              "internalType": "address",
              "name": "addr",
              "type": "address"
            }
          ],
          "internalType": "struct cryptokids.kids",
          "name": "",
          "type": "tuple"
        }
      ],
      "stateMutability": "view",
      "type": "function"
    },
    {
      "inputs": [],
      "name": "getTotalAmount",
      "outputs": [
        {
          "internalType": "uint256",
          "name": "",
          "type": "uint256"
        }
      ],
      "stateMutability": "view",
      "type": "function"
    },
    {
      "inputs": [],
      "name": "isAdmin",
      "outputs": [
        {
          "internalType": "string",
          "name": "",
          "type": "string"
        }
      ],
      "stateMutability": "view",
      "type": "function"
    },
    {
      "inputs": [
        {
          "internalType": "address",
          "name": "",
          "type": "address"
        }
      ],
      "name": "kidsdetails",
      "outputs": [
        {
          "internalType": "string",
          "name": "fname",
          "type": "string"
        },
        {
          "internalType": "string",
          "name": "lname",
          "type": "string"
        },
        {
          "internalType": "uint256",
          "name": "amount",
          "type": "uint256"
        },
        {
          "internalType": "uint256",
          "name": "timestamp",
          "type": "uint256"
        },
        {
          "internalType": "address",
          "name": "addr",
          "type": "address"
        }
      ],
      "stateMutability": "view",
      "type": "function"
    },
    {
      "inputs": [],
      "name": "owner",
      "outputs": [
        {
          "internalType": "address",
          "name": "",
          "type": "address"
        }
      ],
      "stateMutability": "view",
      "type": "function"
    },
    {
      "inputs": [
        {
          "internalType": "uint256",
          "name": "_amount",
          "type": "uint256"
        }
      ],
      "name": "widthraw",
      "outputs": [],
      "stateMutability": "nonpayable",
      "type": "function"
    }
  ],
  "bytecode": "0x608060405234801561001057600080fd5b50336000806101000a81548173ffffffffffffffffffffffffffffffffffffffff021916908373ffffffffffffffffffffffffffffffffffffffff16021790555061140a806100606000396000f3fe6080604052600436106100865760003560e01c80638da5cb5b116100595780638da5cb5b1461014b578063b69ef8a814610176578063b6db75a0146101a1578063d6afc9b1146101cc578063e441dec9146101f757610086565b806329452c221461008b57806365ac4341146100cc57806365f0155d146100f7578063893d20e814610120575b600080fd5b34801561009757600080fd5b506100b260048036038101906100ad9190610cad565b610213565b6040516100c3959493929190610d9b565b60405180910390f35b3480156100d857600080fd5b506100e1610379565b6040516100ee9190610dfc565b60405180910390f35b34801561010357600080fd5b5061011e60048036038101906101199190610e43565b610381565b005b34801561012c57600080fd5b5061013561059b565b6040516101429190610e70565b60405180910390f35b34801561015757600080fd5b506101606105c4565b60405161016d9190610e70565b60405180910390f35b34801561018257600080fd5b5061018b6105e8565b6040516101989190610dfc565b60405180910390f35b3480156101ad57600080fd5b506101b6610632565b6040516101c39190610e8b565b60405180910390f35b3480156101d857600080fd5b506101e1610701565b6040516101ee9190610f92565b60405180910390f35b610211600480360381019061020c91906110e9565b6108e6565b005b6001602052806000526040600020600091509050806000018054610236906111b7565b80601f0160208091040260200160405190810160405280929190818152602001828054610262906111b7565b80156102af5780601f10610284576101008083540402835291602001916102af565b820191906000526020600020905b81548152906001019060200180831161029257829003601f168201915b5050505050908060010180546102c4906111b7565b80601f01602080910402602001604051908101604052809291908181526020018280546102f0906111b7565b801561033d5780601f106103125761010080835404028352916020019161033d565b820191906000526020600020905b81548152906001019060200180831161032057829003601f168201915b5050505050908060020154908060030154908060040160009054906101000a900473ffffffffffffffffffffffffffffffffffffffff16905085565b600047905090565b670de0b6b3a7640000816103959190611218565b600160003373ffffffffffffffffffffffffffffffffffffffff1673ffffffffffffffffffffffffffffffffffffffff168152602001908152602001600020600201541015610419576040517f08c379a0000000000000000000000000000000000000000000000000000000008152600401610410906112be565b60405180910390fd5b6000600160003373ffffffffffffffffffffffffffffffffffffffff1673ffffffffffffffffffffffffffffffffffffffff1681526020019081526020016000206003015490508042111561059757670de0b6b3a76400008261047c9190611218565b600160003373ffffffffffffffffffffffffffffffffffffffff1673ffffffffffffffffffffffffffffffffffffffff16815260200190815260200160002060020160008282546104cd91906112de565b925050819055506000600160003373ffffffffffffffffffffffffffffffffffffffff1673ffffffffffffffffffffffffffffffffffffffff16815260200190815260200160002060040160009054906101000a900473ffffffffffffffffffffffffffffffffffffffff1690508073ffffffffffffffffffffffffffffffffffffffff166108fc670de0b6b3a7640000856105699190611218565b9081150290604051600060405180830381858888f19350505050158015610594573d6000803e3d6000fd5b50505b5050565b60008060009054906101000a900473ffffffffffffffffffffffffffffffffffffffff16905090565b60008054906101000a900473ffffffffffffffffffffffffffffffffffffffff1681565b6000600160003373ffffffffffffffffffffffffffffffffffffffff1673ffffffffffffffffffffffffffffffffffffffff16815260200190815260200160002060020154905090565b60603373ffffffffffffffffffffffffffffffffffffffff1660008054906101000a900473ffffffffffffffffffffffffffffffffffffffff1673ffffffffffffffffffffffffffffffffffffffff1614156106c5576040518060400160405280600581526020017f41646d696e00000000000000000000000000000000000000000000000000000081525090506106fe565b6040518060400160405280600681526020017f636c69656e74000000000000000000000000000000000000000000000000000081525090505b90565b610709610b53565b600160003373ffffffffffffffffffffffffffffffffffffffff1673ffffffffffffffffffffffffffffffffffffffff1681526020019081526020016000206040518060a0016040529081600082018054610763906111b7565b80601f016020809104026020016040519081016040528092919081815260200182805461078f906111b7565b80156107dc5780601f106107b1576101008083540402835291602001916107dc565b820191906000526020600020905b8154815290600101906020018083116107bf57829003601f168201915b505050505081526020016001820180546107f5906111b7565b80601f0160208091040260200160405190810160405280929190818152602001828054610821906111b7565b801561086e5780601f106108435761010080835404028352916020019161086e565b820191906000526020600020905b81548152906001019060200180831161085157829003601f168201915b5050505050815260200160028201548152602001600382015481526020016004820160009054906101000a900473ffffffffffffffffffffffffffffffffffffffff1673ffffffffffffffffffffffffffffffffffffffff1673ffffffffffffffffffffffffffffffffffffffff1681525050905090565b670de0b6b3a7640000341015610931576040517f08c379a00000000000000000000000000000000000000000000000000000000081526004016109289061135e565b60405180910390fd5b8373ffffffffffffffffffffffffffffffffffffffff16600160008673ffffffffffffffffffffffffffffffffffffffff1673ffffffffffffffffffffffffffffffffffffffff16815260200190815260200160002060040160009054906101000a900473ffffffffffffffffffffffffffffffffffffffff1673ffffffffffffffffffffffffffffffffffffffff161415610a3857670de0b6b3a7640000346109db9190611218565b600160008673ffffffffffffffffffffffffffffffffffffffff1673ffffffffffffffffffffffffffffffffffffffff1681526020019081526020016000206002016000828254610a2c919061137e565b92505081905550610b4d565b6040518060a001604052808481526020018381526020013481526020018281526020018573ffffffffffffffffffffffffffffffffffffffff16815250600160008673ffffffffffffffffffffffffffffffffffffffff1673ffffffffffffffffffffffffffffffffffffffff1681526020019081526020016000206000820151816000019080519060200190610ad0929190610b98565b506020820151816001019080519060200190610aed929190610b98565b50604082015181600201556060820151816003015560808201518160040160006101000a81548173ffffffffffffffffffffffffffffffffffffffff021916908373ffffffffffffffffffffffffffffffffffffffff1602179055509050505b50505050565b6040518060a0016040528060608152602001606081526020016000815260200160008152602001600073ffffffffffffffffffffffffffffffffffffffff1681525090565b828054610ba4906111b7565b90600052602060002090601f016020900481019282610bc65760008555610c0d565b82601f10610bdf57805160ff1916838001178555610c0d565b82800160010185558215610c0d579182015b82811115610c0c578251825591602001919060010190610bf1565b5b509050610c1a9190610c1e565b5090565b5b80821115610c37576000816000905550600101610c1f565b5090565b6000604051905090565b600080fd5b600080fd5b600073ffffffffffffffffffffffffffffffffffffffff82169050919050565b6000610c7a82610c4f565b9050919050565b610c8a81610c6f565b8114610c9557600080fd5b50565b600081359050610ca781610c81565b92915050565b600060208284031215610cc357610cc2610c45565b5b6000610cd184828501610c98565b91505092915050565b600081519050919050565b600082825260208201905092915050565b60005b83811015610d14578082015181840152602081019050610cf9565b83811115610d23576000848401525b50505050565b6000601f19601f8301169050919050565b6000610d4582610cda565b610d4f8185610ce5565b9350610d5f818560208601610cf6565b610d6881610d29565b840191505092915050565b6000819050919050565b610d8681610d73565b82525050565b610d9581610c6f565b82525050565b600060a0820190508181036000830152610db58188610d3a565b90508181036020830152610dc98187610d3a565b9050610dd86040830186610d7d565b610de56060830185610d7d565b610df26080830184610d8c565b9695505050505050565b6000602082019050610e116000830184610d7d565b92915050565b610e2081610d73565b8114610e2b57600080fd5b50565b600081359050610e3d81610e17565b92915050565b600060208284031215610e5957610e58610c45565b5b6000610e6784828501610e2e565b91505092915050565b6000602082019050610e856000830184610d8c565b92915050565b60006020820190508181036000830152610ea58184610d3a565b905092915050565b600082825260208201905092915050565b6000610ec982610cda565b610ed38185610ead565b9350610ee3818560208601610cf6565b610eec81610d29565b840191505092915050565b610f0081610d73565b82525050565b610f0f81610c6f565b82525050565b600060a0830160008301518482036000860152610f328282610ebe565b91505060208301518482036020860152610f4c8282610ebe565b9150506040830151610f616040860182610ef7565b506060830151610f746060860182610ef7565b506080830151610f876080860182610f06565b508091505092915050565b60006020820190508181036000830152610fac8184610f15565b905092915050565b600080fd5b600080fd5b7f4e487b7100000000000000000000000000000000000000000000000000000000600052604160045260246000fd5b610ff682610d29565b810181811067ffffffffffffffff8211171561101557611014610fbe565b5b80604052505050565b6000611028610c3b565b90506110348282610fed565b919050565b600067ffffffffffffffff82111561105457611053610fbe565b5b61105d82610d29565b9050602081019050919050565b82818337600083830152505050565b600061108c61108784611039565b61101e565b9050828152602081018484840111156110a8576110a7610fb9565b5b6110b384828561106a565b509392505050565b600082601f8301126110d0576110cf610fb4565b5b81356110e0848260208601611079565b91505092915050565b6000806000806080858703121561110357611102610c45565b5b600061111187828801610c98565b945050602085013567ffffffffffffffff81111561113257611131610c4a565b5b61113e878288016110bb565b935050604085013567ffffffffffffffff81111561115f5761115e610c4a565b5b61116b878288016110bb565b925050606061117c87828801610e2e565b91505092959194509250565b7f4e487b7100000000000000000000000000000000000000000000000000000000600052602260045260246000fd5b600060028204905060018216806111cf57607f821691505b602082108114156111e3576111e2611188565b5b50919050565b7f4e487b7100000000000000000000000000000000000000000000000000000000600052601160045260246000fd5b600061122382610d73565b915061122e83610d73565b9250817fffffffffffffffffffffffffffffffffffffffffffffffffffffffffffffffff0483118215151615611267576112666111e9565b5b828202905092915050565b7f6e6f7420656e6f75676800000000000000000000000000000000000000000000600082015250565b60006112a8600a83610ce5565b91506112b382611272565b602082019050919050565b600060208201905081810360008301526112d78161129b565b9050919050565b60006112e982610d73565b91506112f483610d73565b925082821015611307576113066111e9565b5b828203905092915050565b7f7061792076616c756520616d6f756e7400000000000000000000000000000000600082015250565b6000611348601083610ce5565b915061135382611312565b602082019050919050565b600060208201905081810360008301526113778161133b565b9050919050565b600061138982610d73565b915061139483610d73565b9250827fffffffffffffffffffffffffffffffffffffffffffffffffffffffffffffffff038211156113c9576113c86111e9565b5b82820190509291505056fea2646970667358221220612ff741f83ee59f208b7248e22c4906bbbd1661696ceb57bf8670dba6f1e07364736f6c63430008090033",
  "linkReferences": {},
  "deployedLinkReferences": {}
}