{
  "_format": "hh-sol-artifact-1",
  "contractName": "cryptokids",
  "sourceName": "contracts/Parentbank.sol",
  "abi": [
    {
      "inputs": [],
      "stateMutability": "nonpayable",
      "type": "constructor"
    },
    {
      "inputs": [],
      "name": "balance",
      "outputs": [
        {
          "internalType": "uint256",
          "name": "",
          "type": "uint256"
        }
      ],
      "stateMutability": "view",
      "type": "function"
    },
    {
      "inputs": [
        {
          "internalType": "address",
          "name": "addr",
          "type": "address"
        },
        {
          "internalType": "string",
          "name": "_fname",
          "type": "string"
        },
        {
          "internalType": "string",
          "name": "_name",
          "type": "string"
        },
        {
          "internalType": "uint256",
          "name": "_time",
          "type": "uint256"
        },
        {
          "internalType": "bool",
          "name": "cwith",
          "type": "bool"
        }
      ],
      "name": "deposit",
      "outputs": [],
      "stateMutability": "payable",
      "type": "function"
    },
    {
      "inputs": [],
      "name": "getOwner",
      "outputs": [
        {
          "internalType": "address",
          "name": "",
          "type": "address"
        }
      ],
      "stateMutability": "view",
      "type": "function"
    },
    {
      "inputs": [],
      "name": "gettestvalue",
      "outputs": [
        {
          "internalType": "uint256",
          "name": "",
          "type": "uint256"
        }
      ],
      "stateMutability": "pure",
      "type": "function"
    },
    {
      "inputs": [
        {
          "internalType": "address",
          "name": "",
          "type": "address"
        }
      ],
      "name": "kidsdetails",
      "outputs": [
        {
          "internalType": "string",
          "name": "fname",
          "type": "string"
        },
        {
          "internalType": "string",
          "name": "lname",
          "type": "string"
        },
        {
          "internalType": "uint256",
          "name": "amount",
          "type": "uint256"
        },
        {
          "internalType": "uint256",
          "name": "timestamp",
          "type": "uint256"
        },
        {
          "internalType": "bool",
          "name": "canwithdraw",
          "type": "bool"
        },
        {
          "internalType": "address",
          "name": "addr",
          "type": "address"
        }
      ],
      "stateMutability": "view",
      "type": "function"
    },
    {
      "inputs": [],
      "name": "mybalance",
      "outputs": [
        {
          "internalType": "uint256",
          "name": "",
          "type": "uint256"
        }
      ],
      "stateMutability": "pure",
      "type": "function"
    },
    {
      "inputs": [],
      "name": "name",
      "outputs": [
        {
          "internalType": "string",
          "name": "",
          "type": "string"
        }
      ],
      "stateMutability": "view",
      "type": "function"
    },
    {
      "inputs": [],
      "name": "owner",
      "outputs": [
        {
          "internalType": "address",
          "name": "",
          "type": "address"
        }
      ],
      "stateMutability": "view",
      "type": "function"
    },
    {
      "inputs": [
        {
          "internalType": "uint256",
          "name": "_amount",
          "type": "uint256"
        }
      ],
      "name": "widthraw",
      "outputs": [],
      "stateMutability": "nonpayable",
      "type": "function"
    }
  ],
  "bytecode": "0x608060405234801561001057600080fd5b50336000806101000a81548173ffffffffffffffffffffffffffffffffffffffff021916908373ffffffffffffffffffffffffffffffffffffffff16021790555061112f806100606000396000f3fe6080604052600436106100865760003560e01c8063893d20e811610059578063893d20e81461014c5780638da5cb5b146101775780639c4292bc146101a2578063ac19a2a9146101be578063b69ef8a8146101e957610086565b806306fdde031461008b57806329452c22146100b657806365f0155d146100f857806386098df914610121575b600080fd5b34801561009757600080fd5b506100a0610214565b6040516100ad9190610a81565b60405180910390f35b3480156100c257600080fd5b506100dd60048036038101906100d89190610b15565b6102e6565b6040516100ef96959493929190610b85565b60405180910390f35b34801561010457600080fd5b5061011f600480360381019061011a9190610c20565b61045f565b005b34801561012d57600080fd5b50610136610679565b6040516101439190610c4d565b60405180910390f35b34801561015857600080fd5b50610161610682565b60405161016e9190610c68565b60405180910390f35b34801561018357600080fd5b5061018c6106ab565b6040516101999190610c68565b60405180910390f35b6101bc60048036038101906101b79190610de4565b6106cf565b005b3480156101ca57600080fd5b506101d36108eb565b6040516101e09190610c4d565b60405180910390f35b3480156101f557600080fd5b506101fe6108fb565b60405161020b9190610c4d565b60405180910390f35b6060600160003373ffffffffffffffffffffffffffffffffffffffff1673ffffffffffffffffffffffffffffffffffffffff168152602001908152602001600020600001805461026390610ec6565b80601f016020809104026020016040519081016040528092919081815260200182805461028f90610ec6565b80156102dc5780601f106102b1576101008083540402835291602001916102dc565b820191906000526020600020905b8154815290600101906020018083116102bf57829003601f168201915b5050505050905090565b600160205280600052604060002060009150905080600001805461030990610ec6565b80601f016020809104026020016040519081016040528092919081815260200182805461033590610ec6565b80156103825780601f1061035757610100808354040283529160200191610382565b820191906000526020600020905b81548152906001019060200180831161036557829003601f168201915b50505050509080600101805461039790610ec6565b80601f01602080910402602001604051908101604052809291908181526020018280546103c390610ec6565b80156104105780601f106103e557610100808354040283529160200191610410565b820191906000526020600020905b8154815290600101906020018083116103f357829003601f168201915b5050505050908060020154908060030154908060040160009054906101000a900460ff16908060040160019054906101000a900473ffffffffffffffffffffffffffffffffffffffff16905086565b670de0b6b3a7640000816104739190610f27565b600160003373ffffffffffffffffffffffffffffffffffffffff1673ffffffffffffffffffffffffffffffffffffffff1681526020019081526020016000206002015410156104f7576040517f08c379a00000000000000000000000000000000000000000000000000000000081526004016104ee90610fcd565b60405180910390fd5b6000600160003373ffffffffffffffffffffffffffffffffffffffff1673ffffffffffffffffffffffffffffffffffffffff1681526020019081526020016000206003015490508042111561067557670de0b6b3a76400008261055a9190610f27565b600160003373ffffffffffffffffffffffffffffffffffffffff1673ffffffffffffffffffffffffffffffffffffffff16815260200190815260200160002060020160008282546105ab9190610fed565b925050819055506000600160003373ffffffffffffffffffffffffffffffffffffffff1673ffffffffffffffffffffffffffffffffffffffff16815260200190815260200160002060040160019054906101000a900473ffffffffffffffffffffffffffffffffffffffff1690508073ffffffffffffffffffffffffffffffffffffffff166108fc670de0b6b3a7640000856106479190610f27565b9081150290604051600060405180830381858888f19350505050158015610672573d6000803e3d6000fd5b50505b5050565b6000600a905090565b60008060009054906101000a900473ffffffffffffffffffffffffffffffffffffffff16905090565b60008054906101000a900473ffffffffffffffffffffffffffffffffffffffff1681565b60008054906101000a900473ffffffffffffffffffffffffffffffffffffffff1673ffffffffffffffffffffffffffffffffffffffff163373ffffffffffffffffffffffffffffffffffffffff161461075d576040517f08c379a00000000000000000000000000000000000000000000000000000000081526004016107549061106d565b60405180910390fd5b670de0b6b3a76400003410156107a8576040517f08c379a000000000000000000000000000000000000000000000000000000000815260040161079f906110d9565b60405180910390fd5b6040518060c0016040528085815260200184815260200134815260200183815260200182151581526020018673ffffffffffffffffffffffffffffffffffffffff16815250600160008773ffffffffffffffffffffffffffffffffffffffff1673ffffffffffffffffffffffffffffffffffffffff1681526020019081526020016000206000820151816000019080519060200190610848929190610945565b506020820151816001019080519060200190610865929190610945565b50604082015181600201556060820151816003015560808201518160040160006101000a81548160ff02191690831515021790555060a08201518160040160016101000a81548173ffffffffffffffffffffffffffffffffffffffff021916908373ffffffffffffffffffffffffffffffffffffffff1602179055509050505050505050565b6000670de0b6b3a7640000905090565b6000600160003373ffffffffffffffffffffffffffffffffffffffff1673ffffffffffffffffffffffffffffffffffffffff16815260200190815260200160002060020154905090565b82805461095190610ec6565b90600052602060002090601f01602090048101928261097357600085556109ba565b82601f1061098c57805160ff19168380011785556109ba565b828001600101855582156109ba579182015b828111156109b957825182559160200191906001019061099e565b5b5090506109c791906109cb565b5090565b5b808211156109e45760008160009055506001016109cc565b5090565b600081519050919050565b600082825260208201905092915050565b60005b83811015610a22578082015181840152602081019050610a07565b83811115610a31576000848401525b50505050565b6000601f19601f8301169050919050565b6000610a53826109e8565b610a5d81856109f3565b9350610a6d818560208601610a04565b610a7681610a37565b840191505092915050565b60006020820190508181036000830152610a9b8184610a48565b905092915050565b6000604051905090565b600080fd5b600080fd5b600073ffffffffffffffffffffffffffffffffffffffff82169050919050565b6000610ae282610ab7565b9050919050565b610af281610ad7565b8114610afd57600080fd5b50565b600081359050610b0f81610ae9565b92915050565b600060208284031215610b2b57610b2a610aad565b5b6000610b3984828501610b00565b91505092915050565b6000819050919050565b610b5581610b42565b82525050565b60008115159050919050565b610b7081610b5b565b82525050565b610b7f81610ad7565b82525050565b600060c0820190508181036000830152610b9f8189610a48565b90508181036020830152610bb38188610a48565b9050610bc26040830187610b4c565b610bcf6060830186610b4c565b610bdc6080830185610b67565b610be960a0830184610b76565b979650505050505050565b610bfd81610b42565b8114610c0857600080fd5b50565b600081359050610c1a81610bf4565b92915050565b600060208284031215610c3657610c35610aad565b5b6000610c4484828501610c0b565b91505092915050565b6000602082019050610c626000830184610b4c565b92915050565b6000602082019050610c7d6000830184610b76565b92915050565b600080fd5b600080fd5b7f4e487b7100000000000000000000000000000000000000000000000000000000600052604160045260246000fd5b610cc582610a37565b810181811067ffffffffffffffff82111715610ce457610ce3610c8d565b5b80604052505050565b6000610cf7610aa3565b9050610d038282610cbc565b919050565b600067ffffffffffffffff821115610d2357610d22610c8d565b5b610d2c82610a37565b9050602081019050919050565b82818337600083830152505050565b6000610d5b610d5684610d08565b610ced565b905082815260208101848484011115610d7757610d76610c88565b5b610d82848285610d39565b509392505050565b600082601f830112610d9f57610d9e610c83565b5b8135610daf848260208601610d48565b91505092915050565b610dc181610b5b565b8114610dcc57600080fd5b50565b600081359050610dde81610db8565b92915050565b600080600080600060a08688031215610e0057610dff610aad565b5b6000610e0e88828901610b00565b955050602086013567ffffffffffffffff811115610e2f57610e2e610ab2565b5b610e3b88828901610d8a565b945050604086013567ffffffffffffffff811115610e5c57610e5b610ab2565b5b610e6888828901610d8a565b9350506060610e7988828901610c0b565b9250506080610e8a88828901610dcf565b9150509295509295909350565b7f4e487b7100000000000000000000000000000000000000000000000000000000600052602260045260246000fd5b60006002820490506001821680610ede57607f821691505b60208210811415610ef257610ef1610e97565b5b50919050565b7f4e487b7100000000000000000000000000000000000000000000000000000000600052601160045260246000fd5b6000610f3282610b42565b9150610f3d83610b42565b9250817fffffffffffffffffffffffffffffffffffffffffffffffffffffffffffffffff0483118215151615610f7657610f75610ef8565b5b828202905092915050565b7f6e6f7420656e6f75676800000000000000000000000000000000000000000000600082015250565b6000610fb7600a836109f3565b9150610fc282610f81565b602082019050919050565b60006020820190508181036000830152610fe681610faa565b9050919050565b6000610ff882610b42565b915061100383610b42565b92508282101561101657611015610ef8565b5b828203905092915050565b7f6f6e6c79206f776e65722063616e20616464206b696400000000000000000000600082015250565b60006110576016836109f3565b915061106282611021565b602082019050919050565b600060208201905081810360008301526110868161104a565b9050919050565b7f7061792076616c756520616d6f756e7400000000000000000000000000000000600082015250565b60006110c36010836109f3565b91506110ce8261108d565b602082019050919050565b600060208201905081810360008301526110f2816110b6565b905091905056fea2646970667358221220ba83171c99e8c54698817392555faae3293add84459a193229261930bb42cf3064736f6c63430008090033",
  "linkReferences": {},
  "deployedLinkReferences": {}
}